:020000040800F2
:1000000000500020E92E00088D2D0008952D0008D5
:100010009D2D0008A52D0008AD2D00080000000052
:10002000000000000000000000000000B52D0008E6
:10003000C12D000800000000CD2D0008D92D0008BA
:10004000312F0008312F0008312F0008312F000810
:10005000312F0008312F0008312F0008312F000800
:10006000312F0008312F0008312F0008312F0008F0
:10007000312F0008312F0008312F0008312F0008E0
:10008000312F0008312F0008312F0008312F0008D0
:10009000312F0008312F0008312F0008312F0008C0
:1000A000312F0008312F0008312F0008312F0008B0
:1000B000312F0008312F0008312F0008312F0008A0
:1000C000312F0008312F0008312F0008312F000890
:1000D000312F0008312F0008312F0008312F000880
:1000E000312F0008312F0008312F000800000000D8
:1000F0000000000000000000000000000000000000
:0C01000000000000000000005FF808F1A3
:10010C0010B5054C237833B9044B13B10448AFF345
:10011C0000800123237010BD0C00002000000000A3
:10012C008C2F000808B5034B1BB103490348AFF3F0
:10013C00008008BD00000000100000208C2F00087B
:10014C0080F0004002E000BF81F0004142001FBF80
:10015C005FEA410392EA030F7FEA226C7FEA236C89
:10016C006AD04FEA1262D2EB1363C1BFD21841407E
:10017C0048404140B8BF5B42192B88BF704710F014
:10018C00004F40F4000020F07F4018BF404211F0B7
:10019C00004F41F4000121F07F4118BF494292EA1F
:1001AC00030F3FD0A2F1010241FA03FC10EB0C004B
:1001BC00C3F1200301FA03F100F0004302D54942D8
:1001CC0060EB4000B0F5000F13D3B0F1807F06D385
:1001DC0040084FEA310102F10102FE2A51D2B1F17D
:1001EC00004F40EBC25008BF20F0010040EA030072
:1001FC007047490040EB0000013A28BFB0F5000FF2
:10020C00EDD2B0FA80FCACF1080CB2EB0C0200FAA7
:10021C000CF0AABF00EBC25052421843BCBFD040F6
:10022C001843704792F0000F81F4000106BF80F470
:10023C0000000132013BB5E74FEA41037FEA226C33
:10024C0018BF7FEA236C21D092EA030F04D092F0FE
:10025C00000F08BF0846704790EA010F1CBF002032
:10026C00704712F07F4F04D1400028BF40F000408F
:10027C00704712F100723CBF00F50000704700F0AF
:10028C00004343F0FE4040F4000070477FEA2262D6
:10029C0016BF08467FEA23630146420206BF5FEAA7
:1002AC00412390EA010F40F4800070474FF00003A7
:1002BC0004E000BF10F0004348BF40425FEA000C6E
:1002CC0008BF704743F0964301464FF000001CE016
:1002DC0050EA010208BF70474FF000030AE000BF6C
:1002EC0050EA010208BF704711F0004302D54042AA
:1002FC0061EB41015FEA010C02BF8446014600201C
:10030C0043F0B64308BFA3F18053A3F50003BCFA36
:10031C008CF2083AA3EBC25310DB01FA02FC6344E3
:10032C0000FA02FCC2F12002BCF1004F20FA02F2EA
:10033C0043EB020008BF20F00100704702F12002DD
:10034C0001FA02FCC2F1200250EA4C0021FA02F23E
:10035C0043EB020008BF20EADC7070474FF0FF0C43
:10036C001CEAD0521EBF1CEAD15392EA0C0F93EA3E
:10037C000C0F6FD01A4480EA010C400218BF5FEAE0
:10038C0041211ED04FF0006343EA501043EA511153
:10039C00A0FB01310CF00040B1F5000F3EBF49004D
:1003AC0041EAD3715B0040EA010062F17F02FD2A51
:1003BC001DD8B3F1004F40EBC25008BF20F0010034
:1003CC00704790F0000F0CF0004C08BF49024CEA4B
:1003DC00502040EA51207F3AC2BFD2F1FF0340EADD
:1003EC00C250704740F400004FF00003013A5DDC4E
:1003FC0012F1190FDCBF00F000407047C2F100028F
:10040C00410021FA02F1C2F1200200FA02FC5FEA7B
:10041C00310040F1000053EA4C0308BF20EADC70C5
:10042C00704792F0000F00F0004C02BF400010F437
:10043C00000F013AF9D040EA0C0093F0000F01F0E4
:10044C00004C02BF490011F4000F013BF9D041EA06
:10045C000C018FE70CEAD15392EA0C0F18BF93EA08
:10046C000C0F0AD030F0004C18BF31F0004CD8D132
:10047C0080EA010000F00040704790F0000F17BFB9
:10048C0090F0004F084691F0000F91F0004F14D0FF
:10049C0092EA0C0F01D142020FD193EA0C0F03D157
:1004AC004B0218BF084608D180EA010000F000405A
:1004BC0040F0FE4040F40000704740F0FE4040F435
:1004CC00400070474FF0FF0C1CEAD0521EBF1CEAD4
:1004DC00D15392EA0C0F93EA0C0F69D0A2EB0302F2
:1004EC0080EA010C49024FEA402037D04FF080538C
:1004FC0043EA111143EA10130CF000408B4238BF51
:10050C005B0042F17D024FF4000C8B4224BF5B1A5E
:10051C0040EA0C00B3EB510F24BFA3EB510340EAAC
:10052C005C00B3EB910F24BFA3EB910340EA9C005A
:10053C00B3EBD10F24BFA3EBD10340EADC001B01CA
:10054C0018BF5FEA1C1CE0D1FD2A3FF650AF8B426E
:10055C0040EBC25008BF20F0010070470CF0004C7B
:10056C004CEA50207F32C2BFD2F1FF0340EAC250A6
:10057C00704740F400004FF00003013A37E792F067
:10058C00000F00F0004C02BF400010F4000F013AC5
:10059C00F9D040EA0C0093F0000F01F0004C02BFC0
:1005AC00490011F4000F013BF9D041EA0C0195E729
:1005BC000CEAD15392EA0C0F08D142027FF47DAFC2
:1005CC0093EA0C0F7FF470AF084676E793EA0C0FB2
:1005DC0004D14B023FF44CAF08466EE730F0004CB0
:1005EC0018BF31F0004CCAD130F000427FF45CAF40
:1005FC0031F000437FF43CAF5FE700BF4FF0FF3CAE
:10060C0006E000BF4FF0010C02E000BF4FF0010C00
:10061C004DF804CD4FEA40024FEA41037FEA226CC9
:10062C0018BF7FEA236C11D001B052EA530C18BFEB
:10063C0090EA010F58BFB2EB030088BFC81738BF50
:10064C006FEAE17018BF40F0010070477FEA226C3E
:10065C0002D15FEA402C05D17FEA236CE4D15FEA3A
:10066C00412CE1D05DF8040B704700BF844608466E
:10067C006146FFE70FB5FFF7C9FF002848BF10F12F
:10068C00000F0FBD4DF808EDFFF7F4FF0CBF012074
:10069C0000205DF808FB00BF4DF808EDFFF7EAFFFE
:1006AC0034BF012000205DF808FB00BF4DF808EDB9
:1006BC00FFF7E0FF94BF012000205DF808FB00BFAE
:1006CC004DF808EDFFF7D2FF94BF012000205DF834
:1006DC0008FB00BF4DF808EDFFF7C8FF34BF012041
:1006EC0000205DF808FB00BF4FEA4002B2F1FE4F5C
:1006FC000FD34FF09E03B3EB12620DD94FEA0023D8
:10070C0043F0004310F0004F23FA02F018BF4042B0
:10071C0070474FF00000704712F1610F01D1420297
:10072C0005D110F0004008BF6FF0004070474FF04B
:10073C000000704780B400AF00BFBD4680BC70475E
:10074C0080B582B000AF78607B68002B01D10123AB
:10075C0041E07B6893F83D30DBB2002B06D17B681F
:10076C00002283F83C20786802F068FB7B68022248
:10077C0083F83D207B681A687B6804331946104661
:10078C0000F0B2FA7B68012283F846207B680122D4
:10079C0083F83E207B68012283F83F207B6801228E
:1007AC0083F840207B68012283F841207B6801227A
:1007BC0083F842207B68012283F843207B68012266
:1007CC0083F844207B68012283F845207B68012252
:1007DC0083F83D20002318460837BD4680BD80B500
:1007EC0082B000AF78607B68002B01D1012341E01F
:1007FC007B6893F83D30DBB2002B06D17B6800227E
:10080C0083F83C20786800F039F87B68022283F882
:10081C003D207B681A687B6804331946104600F04B
:10082C0063FA7B68012283F846207B68012283F8F7
:10083C003E207B68012283F83F207B68012283F8ED
:10084C0040207B68012283F841207B68012283F8D9
:10085C0042207B68012283F843207B68012283F8C5
:10086C0044207B68012283F845207B68012283F8B1
:10087C003D20002318460837BD4680BD80B483B0A8
:10088C0000AF786000BF0C37BD4680BC70470000DD
:10089C0080B584B000AF786039603B68002B09D11B
:1008AC007B6893F83E30DBB2012B14BF012300238D
:1008BC00DBB222E03B68042B09D17B6893F83F3014
:1008CC00DBB2012B14BF01230023DBB215E03B6824
:1008DC00082B09D17B6893F84030DBB2012B14BF95
:1008EC0001230023DBB208E07B6893F84130DBB2D4
:1008FC00012B14BF01230023DBB2002B01D00123F9
:10090C005EE03B68002B04D17B68022283F83E201A
:10091C0013E03B68042B04D17B68022283F83F2050
:10092C000BE03B68082B04D17B68022283F8402043
:10093C0003E07B68022283F841207B681B6801225C
:10094C003968184600F05CFC7B681B681E4A9342B1
:10095C0007D17B681B685A6C7B681B6842F40042A9
:10096C005A647B681B68184A93420ED07B681B68DC
:10097C00B3F1804F09D07B681B68144A934204D0B2
:10098C007B681B68124A934211D17B681B689B6879
:10099C0003F00703FB60FB68062B10D07B681B6819
:1009AC001A687B681B6842F001021A6007E07B68DA
:1009BC001B681A687B681B6842F001021A600023EE
:1009CC0018461037BD4680BD002C01400004004085
:1009DC000008004080B586B000AFF860B9607A605E
:1009EC000023FB75FB6893F83C30012B01D10223EB
:1009FC00AEE0FB68012283F83C207B680C2B00F2F4
:100A0C009F8001A252F823F0490A00084D0B000800
:100A1C004D0B00084D0B0008890A00084D0B00080F
:100A2C004D0B00084D0B0008CB0A00084D0B0008BD
:100A3C004D0B00084D0B00080B0B0008FB681B68E6
:100A4C00B968184600F0BEF9FB681B689A69FB6828
:100A5C001B6842F008029A61FB681B689A69FB6884
:100A6C001B6822F004029A61FB681B689969BB68D9
:100A7C001A69FB681B680A439A6164E0FB681B688F
:100A8C00B968184600F004FAFB681B689A69FB68A1
:100A9C001B6842F400629A61FB681B689A69FB68E8
:100AAC001B6822F480629A61FB681B689969BB68B9
:100ABC001B691A02FB681B680A439A6143E0FB68D6
:100ACC001B68B968184600F04DFAFB681B68DA69B8
:100ADC00FB681B6842F00802DA61FB681B68DA6984
:100AEC00FB681B6822F00402DA61FB681B68D96999
:100AFC00BB681A69FB681B680A43DA6123E0FB6870
:100B0C001B68B968184600F097FAFB681B68DA692D
:100B1C00FB681B6842F40062DA61FB681B68DA69E7
:100B2C00FB681B6822F48062DA61FB681B68D96978
:100B3C00BB681B691A02FB681B680A43DA6102E096
:100B4C000123FB7500BFFB68002283F83C20FB7D72
:100B5C0018461837BD4680BD80B584B000AF7860AC
:100B6C0039600023FB737B6893F83C30012B01D177
:100B7C000223B4E07B68012283F83C207B680222CC
:100B8C0083F83D207B681B689B68BB60BB6823F0C7
:100B9C007703BB60BB6823F47F43BB607B681B6837
:100BAC00BA689A603B681B68B3F5005F3ED0B3F53A
:100BBC00005F00F28780B3F5805F00F08680B3F5AC
:100BCC00805F7FD8702B1AD0702B7BD8602B50D0C5
:100BDC00602B77D8502B3CD0502B73D8402B58D04F
:100BEC00402B6FD8302B64D0302B6BD8202B60D09F
:100BFC00202B67D8002B5CD0102B5AD062E07B687E
:100C0C0018683B6899683B685A683B68DB6800F079
:100C1C00D8FA7B681B689B68BB60BB6843F07703A2
:100C2C00BB607B681B68BA689A604FE07B68186889
:100C3C003B6899683B685A683B68DB6800F0C1FA0E
:100C4C007B681B689A687B681B6842F480429A60D8
:100C5C003CE07B6818683B6859683B68DB681A465F
:100C6C0000F038FA7B681B685021184600F08FFAA8
:100C7C002CE07B6818683B6859683B68DB681A464F
:100C8C0000F056FA7B681B686021184600F07FFA6A
:100C9C001CE07B6818683B6859683B68DB681A463F
:100CAC0000F018FA7B681B684021184600F06FFAB8
:100CBC000CE07B681A683B681B681946104600F00C
:100CCC0066FA03E00123FB7300E000BF7B6801229E
:100CDC0083F83D207B68002283F83C20FB7B184680
:100CEC001037BD4680BD000080B485B000AF786081
:100CFC0039607B681B68FB607B682F4A93420BD082
:100D0C007B68B3F1804F07D07B682C4A934203D0A9
:100D1C007B682B4A934208D1FB6823F07003FB607D
:100D2C003B685B68FA681343FB607B68224A93421A
:100D3C000BD07B68B3F1804F07D07B681F4A93427E
:100D4C0003D07B681E4A934208D1FB6823F440739E
:100D5C00FB603B68DB68FA681343FB60FB6823F0BD
:100D6C0080023B685B691343FB607B68FA681A601E
:100D7C003B689A687B68DA623B681A687B689A629F
:100D8C007B680D4A934203D13B681A697B681A63EE
:100D9C007B6801225A617B681B6903F00103002BFD
:100DAC0005D07B681B6923F001027B681A6100BFC8
:100DBC001437BD4680BC7047002C01400004004035
:100DCC000008004080B487B000AF786039607B6861
:100DDC001B6A7B617B681B6A23F001027B681A62C9
:100DEC007B685B683B617B689B69FB60FB6823F0FD
:100DFC007003FB60FB6823F00303FB603B681B681C
:100E0C00FA681343FB607B6923F002037B613B6848
:100E1C009B687A6913437B617B681C4A93420CD1B3
:100E2C007B6923F008037B613B68DB687A691343B9
:100E3C007B617B6923F004037B617B68134A9342DB
:100E4C0011D13B6923F480733B613B6923F400733C
:100E5C003B613B685B693A6913433B613B689B6947
:100E6C003A6913433B617B683A695A607B68FA685C
:100E7C009A613B685A687B685A637B687A691A6224
:100E8C0000BF1C37BD4680BC704700BF002C014022
:100E9C0080B487B000AF786039607B681B6A7B6177
:100EAC007B681B6A23F010027B681A627B685B68A4
:100EBC003B617B689B69FB60FB6823F4E043FB6050
:100ECC00FB6823F44073FB603B681B681B02FA68E9
:100EDC001343FB607B6923F020037B613B689B68B9
:100EEC001B017A6913437B617B681D4A93420DD1C8
:100EFC007B6923F080037B613B68DB681B017A69AB
:100F0C0013437B617B6923F040037B617B68144A4C
:100F1C00934213D13B6923F480633B613B6923F417
:100F2C0000633B613B685B699B003A6913433B611F
:100F3C003B689B699B003A6913433B617B683A6948
:100F4C005A607B68FA689A613B685A687B689A6356
:100F5C007B687A691A6200BF1C37BD4680BC70473B
:100F6C00002C014080B487B000AF786039607B689A
:100F7C001B6A7B617B681B6A23F480727B681A6234
:100F8C007B685B683B617B68DB69FB60FB6823F01B
:100F9C007003FB60FB6823F00303FB603B681B687A
:100FAC00FA681343FB607B6923F400737B613B6835
:100FBC009B681B027A6913437B617B681D4A9342D1
:100FCC000DD17B6923F400637B613B68DB681B02FA
:100FDC007A6913437B617B6923F480637B617B6853
:100FEC00144A934213D13B6923F480533B613B6910
:100FFC0023F400533B613B685B691B013A69134363
:10100C003B613B689B691B013A6913433B617B68FD
:10101C003A695A607B68FA68DA613B685A687B689F
:10102C00DA637B687A691A6200BF1C37BD4680BCE4
:10103C00704700BF002C014080B487B000AF7860CF
:10104C0039607B681B6A3B617B681B6A23F48052A6
:10105C007B681A627B685B687B617B68DB69FB6021
:10106C00FB6823F4E043FB60FB6823F44073FB60F4
:10107C003B681B681B02FA681343FB603B6923F453
:10108C0000533B613B689B681B033A6913433B610C
:10109C007B680F4A934209D17B6923F480437B61BF
:1010AC003B685B699B017A6913437B617B687A6956
:1010BC005A607B68FA68DA613B685A687B681A6424
:1010CC007B683A691A6200BF1C37BD4680BC70470A
:1010DC00002C014080B487B000AFF860B9607A6032
:1010EC00FB681B6A7B61FB681B6A23F00102FB68CF
:1010FC001A62FB689B693B613B6923F0F0033B611F
:10110C007B681B013A6913433B617B6923F00A033B
:10111C007B617A69BB6813437B61FB683A699A61AE
:10112C00FB687A691A6200BF1C37BD4680BC7047E9
:10113C0080B487B000AFF860B9607A60FB681B6A56
:10114C007B61FB681B6A23F01002FB681A62FB6868
:10115C009B693B613B6923F470433B617B681B03D8
:10116C003A6913433B617B6923F0A0037B61BB6845
:10117C001B017A6913437B61FB683A699A61FB68CE
:10118C007A691A6200BF1C37BD4680BC704780B4B8
:10119C0085B000AF786039607B689B68FB60FB684A
:1011AC0023F07003FB603A68FB68134343F00703BA
:1011BC00FB607B68FA689A6000BF1437BD4680BC40
:1011CC00704780B487B000AFF860B9607A603B605C
:1011DC00FB689B687B617B6923F47F437B613B6885
:1011EC001A027B681A43BB6813437A6913437B6109
:1011FC00FB687A699A6000BF1C37BD4680BC70479B
:10120C0080B487B000AFF860B9607A60BB6803F057
:10121C001F03012202FA03F37B61FB681A6A7B69E4
:10122C00DB431A40FB681A62FB681A6ABB6803F05E
:10123C001F03796801FA03F31A43FB681A6200BFB3
:10124C001C37BD4680BC704780B485B000AF786059
:10125C0039607B6893F83C30012B01D1022346E0C6
:10126C007B68012283F83C207B68022283F83D20B6
:10127C007B681B685B68FB607B681B689B68BB605A
:10128C00FB6823F07003FB603B681B68FA68134330
:10129C00FB607B681B68FA685A607B681B68164A9F
:1012AC0093420ED07B681B68B3F1804F09D07B68EA
:1012BC001B68124A934204D07B681B68104A934205
:1012CC000CD1BB6823F08003BB603B685B68BA68D9
:1012DC001343BB607B681B68BA689A607B68012209
:1012EC0083F83D207B68002283F83C2000231846BD
:1012FC001437BD4680BC7047002C014000040040F0
:10130C000008004080B500AF084B1B68074A43F04B
:10131C0010031360032000F0BDFE0F2000F008F84E
:10132C0001F05AFD0023184680BD00BF002002408A
:10133C0080B582B000AF7860124B1A68124B1B78E4
:10134C0019464FF47A73B3FBF1F3B2FBF3F318467F
:10135C0000F0C7FE0346002B01D001230EE07B6892
:10136C000F2B0AD8002279684FF0FF3000F09DFE59
:10137C00064A7B681360002300E0012318460837F7
:10138C00BD4680BD000000200800002004000020A5
:10139C0080B400AF054B1B781A46054B1B681344F1
:1013AC00034A136000BFBD4680BC70470800002094
:1013BC002800002080B400AF024B1B681846BD46C5
:1013CC0080BC70472800002080B584B000AF7860E6
:1013DC00FFF7F0FFB8607B68FB60FB68B3F1FF3F81
:1013EC0005D00A4B1B781A46FB681344FB6000BF00
:1013FC00FFF7E0FF0246BB68D31AFA689A42F7D8A7
:10140C0000BF00BF1037BD4680BD00BF08000020E4
:10141C0080B586B000AF78607B68002B01D10123CA
:10142C0072E27B681B6803F00103002B00F08780DD
:10143C00924B5B6803F00C03042B0CD08F4B5B6856
:10144C0003F00C03082B12D18C4B5B6803F4803334
:10145C00B3F5803F0BD1894B1B6803F40033002B91
:10146C006CD07B685B68002B68D101234CE27B68F5
:10147C005B68B3F5803F06D1804B1B687F4A43F411
:10148C00803313602EE07B685B68002B0CD17B4BA8
:10149C001B687A4A23F480331360784B1B68774AB5
:1014AC0023F4802313601DE07B685B68B3F5A02FE9
:1014BC000CD1724B1B68714A43F4802313606F4B41
:1014CC001B686E4A43F4803313600BE06B4B1B6854
:1014DC006A4A23F480331360684B1B68674A23F411
:1014EC00802313607B685B68002B13D0FFF762FFCF
:1014FC00386108E0FFF75EFF02463B69D31A642BA4
:10150C0001D9032300E25D4B1B6803F40033002B6D
:10151C00F0D014E0FFF74EFF386108E0FFF74AFF08
:10152C0002463B69D31A642B01D90323ECE1534BDC
:10153C001B6803F40033002BF0D100E000BF7B6884
:10154C001B6803F00203002B63D04C4B5B6803F069
:10155C000C03002B0BD0494B5B6803F00C03082BDE
:10156C001CD1464B5B6803F48033002B16D1434BE4
:10157C001B6803F00203002B05D07B681B69012B51
:10158C0001D00123C0E13D4B1B6823F0F8027B68BE
:10159C005B69DB00394913430B603AE07B681B69DC
:1015AC00002B20D0364B01221A60FFF703FF386165
:1015BC0008E0FFF7FFFE02463B69D31A022B01D964
:1015CC000323A1E12D4B1B6803F00203002BF0D089
:1015DC002A4B1B6823F0F8027B685B69DB00274908
:1015EC0013430B6015E0264B00221A60FFF7E2FE56
:1015FC00386108E0FFF7DEFE02463B69D31A022B86
:10160C0001D9032380E11D4B1B6803F00203002B5F
:10161C00F0D17B681B6803F00803002B3AD07B6881
:10162C009B69002B19D0174B01221A60FFF7C2FEE1
:10163C00386108E0FFF7BEFE02463B69D31A022B65
:10164C0001D9032360E10D4B5B6A03F00203002B0D
:10165C00F0D0012000F09CFA1CE00A4B00221A602A
:10166C00FFF7A8FE38610FE0FFF7A4FE02463B69C6
:10167C00D31A022B08D9032346E100BF0010024005
:10168C000000424280044242924B5B6A03F0020328
:10169C00002BE9D17B681B6803F00403002B00F0DE
:1016AC00A6800023FB758B4BDB6903F08053002B6A
:1016BC000DD1884BDB69874A43F08053D361854B4E
:1016CC00DB6903F08053BB60BB680123FB75824B65
:1016DC001B6803F48073002B18D17F4B1B687E4A68
:1016EC0043F480731360FFF765FE386108E0FFF781
:1016FC0061FE02463B69D31A642B01D9032303E133
:10170C00754B1B6803F48073002BF0D07B68DB688F
:10171C00012B06D16F4B1B6A6E4A43F00103136217
:10172C002DE07B68DB68002B0CD16A4B1B6A694A85
:10173C0023F001031362674B1B6A664A23F0040310
:10174C0013621CE07B68DB68052B0CD1614B1B6AB8
:10175C00604A43F0040313625E4B1B6A5D4A43F01C
:10176C00010313620BE05B4B1B6A5A4A23F0010323
:10177C001362584B1B6A574A23F0040313627B68AD
:10178C00DB68002B15D0FFF715FE38610AE0FFF778
:10179C0011FE02463B69D31A41F28832934201D9B9
:1017AC000323B1E04B4B1B6A03F00203002BEED07A
:1017BC0014E0FFF7FFFD38610AE0FFF7FBFD02467E
:1017CC003B69D31A41F28832934201D903239BE03F
:1017DC00404B1B6A03F00203002BEED1FB7D012B67
:1017EC0005D13C4BDB693B4A23F08053D3617B68CA
:1017FC00DB69002B00F08780364B5B6803F00C0331
:10180C00082B61D07B68DB69022B46D1334B00225D
:10181C001A60FFF7CFFD386108E0FFF7CBFD0246F9
:10182C003B69D31A022B01D903236DE0294B1B68AA
:10183C0003F00073002BF0D17B681B6AB3F5803F7B
:10184C0008D1244B5B6823F400327B689B682149E8
:10185C0013434B601F4B5B6823F474127B68196A4B
:10186C007B685B6A0B431B4913434B601B4B012288
:10187C001A60FFF79FFD386108E0FFF79BFD0246F9
:10188C003B69D31A022B01D903233DE0114B1B6892
:10189C0003F00073002BF0D035E0104B00221A60DF
:1018AC00FFF788FD386108E0FFF784FD02463B69CD
:1018BC00D31A022B01D9032326E0064B1B6803F035
:1018CC000073002BF0D11EE07B68DB69012B07D184
:1018DC00012319E0001002400070004060004242F9
:1018EC000B4B5B68FB60FB6803F480327B681B6A04
:1018FC009A4206D1FB6803F470127B685B6A9A42C9
:10190C0001D0012300E0002318461837BD4680BDE6
:10191C000010024080B584B000AF786039607B68FD
:10192C00002B01D10123D0E06A4B1B6803F00703A5
:10193C003A689A4210D9674B1B6823F00702654935
:10194C003B6813430B60634B1B6803F007033A6857
:10195C009A4201D00123B8E07B681B6803F00203B4
:10196C00002B20D07B681B6803F00403002B05D0F0
:10197C00594B5B68584A43F4E06353607B681B68BF
:10198C0003F00803002B05D0534B5B68524A43F419
:10199C0060535360504B5B6823F0F0027B689B688C
:1019AC004D4913434B607B681B6803F00103002B0C
:1019BC0040D07B685B68012B07D1474B1B6803F455
:1019CC000033002B15D101237FE07B685B68022B71
:1019DC0007D1414B1B6803F00073002B09D1012385
:1019EC0073E03D4B1B6803F00203002B01D1012374
:1019FC006BE0394B5B6823F003027B685B6836490C
:101A0C0013434B60FFF7D6FCF8600AE0FFF7D2FCFB
:101A1C000246FB68D31A41F28832934201D9032360
:101A2C0053E02D4B5B6803F00C027B685B689B00FA
:101A3C009A42EBD1274B1B6803F007033A689A4292
:101A4C0010D2244B1B6823F0070222493B68134336
:101A5C000B60204B1B6803F007033A689A4201D0D5
:101A6C00012332E07B681B6803F00403002B08D0D1
:101A7C00194B5B6823F4E0627B68DB6816491343FF
:101A8C004B607B681B6803F00803002B09D0124BDA
:101A9C005B6823F460527B681B69DB000E491343BF
:101AAC004B6000F021F802460B4B5B681B0903F0FE
:101ABC000F030A49CB5C22FA03F3094A1360094B62
:101ACC001B681846FFF734FC002318461037BD4638
:101ADC0080BD00BF0020024000100240BC2F000857
:101AEC00000000200400002080B487B000AF002369
:101AFC00FB600023BB6000237B6100237B60002321
:101B0C003B611E4B5B68FB60FB6803F00C03042B12
:101B1C0002D0082B03D027E0194B3B6127E0FB6870
:101B2C009B0C03F00F03174AD35C7B60FB6803F438
:101B3C008033002B10D0114B5B685B0C03F001035E
:101B4C00114AD35CBB607B680D4A03FB02F2BB6895
:101B5C00B2FBF3F37B6104E07B680C4A02FB03F3FA
:101B6C007B617B693B6102E0054B3B6100BF3B69DC
:101B7C0018461C37BD4680BC704700BF00100240A1
:101B8C0000127A00CC2F0008DC2F000800093D0061
:101B9C0080B485B000AF78600A4B1B680A4AA2FB80
:101BAC0003235B0A7A6802FB03F3FB6000BFFB684C
:101BBC005A1EFA60002BF9D100BF00BF1437BD4686
:101BCC0080BC704700000020D34D621080B48BB0F5
:101BDC0000AF7860396000237B6200233B6269E1CF
:101BEC0001227B6A02FA03F3FB613B681B68FA690A
:101BFC001340BB61BA69FB699A4240F058813B685B
:101C0C005B689A4A93425ED0984A934275D8984A38
:101C1C00934258D0964A93426FD8964A934252D0E8
:101C2C00944A934269D8944A93424CD0924A934234
:101C3C0063D8924A934246D0904A93425DD8122B75
:101C4C002AD8122B59D801A252F823F0D31C000821
:101C5C00AD1C0008BF1C0008011D0008071D000872
:101C6C00071D0008071D0008071D0008071D0008B8
:101C7C00071D0008071D0008071D0008071D0008A8
:101C8C00071D0008071D0008071D0008071D000898
:101C9C00B51C0008C91C0008794A934213D02CE0EB
:101CAC003B68DB683B6229E03B68DB6804333B62E2
:101CBC0024E03B68DB6808333B621FE03B68DB6871
:101CCC000C333B621AE03B689B68002B02D1042367
:101CDC003B6213E03B689B68012B05D108233B62F8
:101CEC007B68FA691A6109E008233B627B68FA6930
:101CFC005A6103E000233B6200E000BFBB69FF2B8D
:101D0C0001D87B6801E07B6804337B61BB69FF2BE6
:101D1C0002D87B6A9B0002E07B6A083B9B003B611C
:101D2C007B691A680F213B6901FA03F3DB431A4004
:101D3C00396A3B6901FA03F31A437B691A603B6801
:101D4C005B6803F08053002B00F0B1804D4B9B6916
:101D5C004C4A43F0010393614A4B9B6903F0010326
:101D6C00BB60BB68484A7B6A9B08023352F823303D
:101D7C00FB607B6A03F003039B000F2202FA03F360
:101D8C00DB43FA681340FB607B68404A934213D0F4
:101D9C007B683F4A93420DD07B683E4A934207D002
:101DAC007B683D4A934201D1032306E0042304E0FF
:101DBC00022302E0012300E000237A6A02F003020E
:101DCC0092009340FA681343FB602F497B6A9B088F
:101DDC000233FA6841F823203B685B6803F48013F4
:101DEC00002B06D02D4B9A682C49BB6913438B6092
:101DFC0006E02A4B9A68BB69DB43284913408B6089
:101E0C003B685B6803F40013002B06D0234BDA68A5
:101E1C002249BB691343CB6006E0204BDA68BB69EF
:101E2C00DB431E491340CB603B685B6803F4003313
:101E3C00002B06D0194B5A681849BB6913434B60E9
:101E4C0006E0164B5A68BB69DB43144913404B60E0
:101E5C003B685B6803F48033002B21D00F4B1A686E
:101E6C000E49BB6913430B6021E000BF0000321028
:101E7C000000311000002210000021100000121090
:101E8C000000111000100240000001400008014049
:101E9C00000C0140001001400014014000040140FE
:101EAC000B4B1A68BB69DB43094913400B607B6A17
:101EBC0001337B623B681A687B6A22FA03F3002BBE
:101ECC007FF48EAE00BF00BF2C37BD4680BC704780
:101EDC000004014080B485B000AF78600B467B8075
:101EEC007B689A687B881340002B02D00123FB731C
:101EFC0001E00023FB73FB7B18461437BD4680BC06
:101F0C00704780B483B000AF78600B467B8013467B
:101F1C007B707B78002B03D07A887B681A6103E096
:101F2C007B881A047B681A6100BF0C37BD4680BCE5
:101F3C007047000080B485B000AF78607B6803F018
:101F4C000703FB600C4BDB68BB60BA684FF6FF0302
:101F5C001340BB60FB681A02BB68134343F0BF63BA
:101F6C0043F40033BB60044ABB68D36000BF143732
:101F7C00BD4680BC704700BF00ED00E080B400AFF0
:101F8C00044BDB681B0A03F007031846BD4680BCF4
:101F9C00704700BF00ED00E080B483B000AF034693
:101FAC003960FB7197F90730002B0ADB3B68DAB21A
:101FBC000C4997F907301201D2B20B4483F8002375
:101FCC000AE03B68DAB20849FB7903F00F03043BE3
:101FDC001201D2B20B441A7600BF0C37BD4680BC3E
:101FEC00704700BF00E100E000ED00E080B489B074
:101FFC0000AFF860B9607A60FB6803F00703FB611F
:10200C00FB69C3F10703042B28BF0423BB61FB69E5
:10201C000433062B02D9FB69033B00E000237B61F0
:10202C004FF0FF32BB6902FA03F3DA43BB681A4084
:10203C007B699A404FF0FF317B6901FA03F3D94376
:10204C007B680B40134318462437BD4680BC704751
:10205C0080B582B000AF78607B68013BB3F1807FC4
:10206C0001D301230FE00A4A7B68013B53600F2127
:10207C004FF0FF30FFF790FF054B00229A60044BA6
:10208C0007221A60002318460837BD4680BD00BFE2
:10209C0010E000E080B582B000AF78607868FFF7A0
:1020AC0049FF00BF0837BD4680BD80B586B000AF84
:1020BC000346B9607A60FB7300237B61FFF75EFF18
:1020CC0078617A68B9687869FFF790FF024697F9EA
:1020DC000F3011461846FFF75FFF00BF1837BD469B
:1020EC0080BD80B582B000AF78607868FFF7B0FF34
:1020FC00034618460837BD4680BD80B582B000AF98
:10210C0078604FF000017868FEF7C6FA0346002BA2
:10211C0003D07B6883F0004300E07B6818460837E7
:10212C00BD4680BD80B483B000AF0346FB800B4638
:10213C00BB8013467B80B7F90620B7F904309A426E
:10214C0002DAB7F904300AE0B7F90620B7F9023021
:10215C009A4202DDB7F9023001E0B7F906301846B1
:10216C000C37BD4680BC704790B58BB000AFFFF705
:10217C00C9F800F0F7F800F0BBF900F037F90021CE
:10218C007148FEF785FB04216F48FEF781FB00F0D8
:10219C0085FB386200F058FCF861FB69DB78FB7654
:1021AC00FB7E002B30D000F045FCB860FFF702F945
:1021BC007860664B1B68002B02D1644A7B68136005
:1021CC00624B1B687A68D31AB3F5AF7F05D300F066
:1021DC0009FD0A20FFF7F8F8B5E04FF00001B868E8
:1021EC00FEF76EFA0346002B05D059494FF4A07048
:1021FC0000F05CFC04E04FF4A071554800F056FC74
:10220C000A20FFF7E1F89EE0504B00221A60FB7E9B
:10221C001946386A00F016FD386AFFF76EFF7861D0
:10222C004C497869FEF79AF8034619464A48FDF777
:10223C008BFF03461846FEF757FA0346FB84FB69EF
:10224C001B79002B03D04FF49673FB8419E0FB69C8
:10225C009B78022B0BD94FF07F517869FEF71CFA53
:10226C000346002B03D04FF48273FB8409E03B49F7
:10227C007869FEF711FA0346002B02D04FF4027373
:10228C00FB84B7F92630B3F5827F02DA4FF4827300
:10229C00FB84B7F92630B3F5027F02DD4FF40273ED
:1022AC00FB84B7F926301846FEF704F8044600F014
:1022BC005DFD034619462046FDF748FF03461846C8
:1022CC00FEF712FA03467B82B7F926301846FDF763
:1022DC00F1FF044600F04AFD034619462046FDF77F
:1022EC0033FF03461846FEF7FFF903463B821C49B1
:1022FC007869FEF7EFF90346002B01D0144B00E090
:10230C000023FB81B7F90E10B7F9123040F2E73217
:10231C001846FFF707FF03467B82B7F90E10B7F993
:10232C00103040F2E7321846FFF7FCFE03463B82C2
:10233C00B7F91020B7F912301146184600F0B6FB69
:10234C000A20FFF741F822E72C000020740000203F
:10235C00C0FEFFFF000018420000D7439A99193FB6
:10236C000000604080B590B000AF07F11803282240
:10237C000021184600F0D7FD3B1D00221A605A6060
:10238C009A60DA601A610123BB614FF48033FB6100
:10239C0000233B6202237B634FF48033BB634FF417
:1023AC00E013FB6307F118031846FFF731F80346F7
:1023BC00002B01D000F02CF90F237B600223BB60B3
:1023CC000023FB604FF480633B6100237B613B1D6A
:1023DC0002211846FFF79EFA0346002B01D000F0AD
:1023EC0017F900BF4037BD4680BD000080B58EB0E8
:1023FC0000AF07F1280300221A605A609A60DA6075
:10240C0007F1200300221A605A603B1D00221A605B
:10241C005A609A60DA601A615A619A61324B334A97
:10242C001A60314B47225A602F4B00229A602E4B78
:10243C0040F2E732DA602C4B00221A612A4B8022E0
:10244C009A612948FEF77CF90346002B01D000F075
:10245C00DFF84FF48053BB6207F12803194622487A
:10246C00FEF77AFB0346002B01D000F0D1F81E4892
:10247C00FEF7B5F90346002B01D000F0C9F8002394
:10248C003B6200237B6207F1200319461648FEF7D6
:10249C00DBFE0346002B01D000F0BAF860237B6012
:1024AC000023BB600023FB6000237B613B1D0022EB
:1024BC0019460D48FEF78EFA0346002B01D000F0AA
:1024CC00A7F83B1D042219460748FEF783FA03467A
:1024DC00002B01D000F09CF8034800F0CDFC00BFAD
:1024EC003837BD4680BD00BF2C00002000040040E2
:1024FC0080B58AB000AF07F1180300221A605A6049
:10250C009A60DA603E4B9B693D4A43F0100393613D
:10251C003B4B9B6903F010037B617B69384B9B69D8
:10252C00374A43F020039361354B9B6903F020033A
:10253C003B613B69324B9B69314A43F00403936125
:10254C002F4B9B6903F00403FB60FB682C4B9B69CE
:10255C002B4A43F008039361294B9B6903F0080352
:10256C00BB60BB68264B9B69254A43F00103936112
:10257C00234B9B6903F001037B607B6801224FF4C2
:10258C0080412048FFF7BDFC4FF48043BB61012321
:10259C00FB6100233B6202237B6207F1180319469F
:1025AC001848FFF713FB4FF44073BB610023FB612A
:1025BC0001233B6207F1180319461348FFF706FB8A
:1025CC004FF47043BB610023FB6101233B6207F1B5
:1025DC00180319460D48FFF7F9FA40F60343BB619F
:1025EC000123FB6100233B6202237B6207F118038A
:1025FC0019460648FFF7EAFA00BF2837BD4680BDEA
:10260C00001002400010014000080140000C014085
:10261C0080B400AF72B600BF00BFFDE780B582B0DA
:10262C0000AF0023FB714FF480512548FFF752FC9B
:10263C000346012B03D1FB7943F00103FB714FF4EB
:10264C0000511F48FFF746FC0346012B03D1FB79D1
:10265C0043F00203FB714FF480411948FFF73AFC39
:10266C000346012B03D1FB7943F00403FB714FF4B8
:10267C0000411348FFF72EFC0346012B03D1FB79D5
:10268C0043F00803FB714FF480710E48FFF722FCF6
:10269C000346012B03D1FB7943F01003FB714FF47C
:1026AC0000710848FFF716FC0346012B03D1FB7998
:1026BC0043F02003FB71FB7918460837BD4680BDFB
:1026CC00000C01400008014080B485B000AF034607
:1026DC00FB71274B1B78FB730023BB733BE0BB7B6D
:1026EC00012202FA03F37B73FA797B7B1340DBB292
:1026FC00002B0CD0BB7B1F4AD35C042B13D8BB7BA9
:10270C001C4AD25C0132D1B21A4AD1540BE0BB7BC9
:10271C00184AD35C002B06D0BB7B164AD25C013A1C
:10272C00D1B2144AD154BB7B124AD35C032B04D9CB
:10273C00FA7B7B7B1343FB730AE0BB7B0D4AD35CB8
:10274C00012B05D87B7BDB43DAB2FB7B1340FB739D
:10275C00BB7B0133BB73BB7B052BC0D9044AFB7B12
:10276C001370034B1B7818461437BD4680BC70475A
:10277C008E0000208800002080B485B000AF034696
:10278C00FB710023FB730023BB7300237B7317E0E7
:10279C007B7B012202FA03F3DAB2FB791340DBB242
:1027AC00002B08D0BB7B002B07D1FB7B0133FB73C9
:1027BC000123BB7301E00023BB737B7B01337B7371
:1027CC007B7B052BE4D9FB7B18461437BD4680BCBC
:1027DC0070470000B0B58CB000AF03463960FB7198
:1027EC002C4B07F108041D460FCD0FC495E80300D0
:1027FC0084E803000023FB62274BBB62002387F8AD
:10280C0027303DE097F82730012202FA03F3DAB2C1
:10281C00FB791340DBB2002B2DD097F827309B00AF
:10282C0030333B4453F8283C1846FDF743FD034630
:10283C0039681846FDF788FC03463B624FF00001EF
:10284C00386AFDF729FF0346002B03D03B6A83F05F
:10285C0000433B62B96A386AFDF71EFF0346002B42
:10286C0009D03B6ABB6297F827309B0030333B445E
:10287C0053F8283CFB6297F82730013387F8273050
:10288C0097F82730052BBDD9FB6A18463037BD4663
:10289C00B0BD00BFA42F00080000C842B0B58AB07C
:1028AC0000AF604B3C1D1D460FCD0FC495E80300D7
:1028BC0084E8030000237B62002387F82330FFF7B2
:1028CC00ADFE034687F8213097F821301846FFF704
:1028DC00FBFE034687F82030002387F822301FE0E8
:1028EC0097F82230012202FA03F3DAB297F820307B
:1028FC001340DBB2002B0ED097F822309B0028330C
:10290C003B4453F8243C7A6A13447B6297F8233097
:10291C00013387F8233097F82230013387F82230BF
:10292C0097F82230052BDBD93F4A97F821305370AA
:10293C003D4A97F8203013703B4A97F82330937038
:10294C00394B00221A71384B00225A7197F82330F8
:10295C00002B19D1354B1B78022B05D8334B1B7828
:10296C000133DAB2314B1A70304B1B78022B01D980
:10297C00012200E000222C4BDA702D4B1B682A4AF6
:10298C0093602B4B1B6849E0284B00221A70264B96
:10299C000022DA7097F820301846FFF7EDFE034658
:1029AC00FB77FB7F012B01D9012200E000221E4B9B
:1029BC005A7197F82330032B01D9012200E0002231
:1029CC00194B1A71184B5B79002B0FD0184B1A68E6
:1029DC0097F8203011461846FFF7FCFE03461846C0
:1029EC00FDF768FC0346124A136011E0786AFDF7A4
:1029FC0061FC044697F823301846FDF75BFC034650
:102A0C0019462046FDF75EFD03461A46084B1A6030
:102A1C00074B1B68044A9360054B1B681846283704
:102A2C00BD46B0BDA42F000878000020090000208E
:102A3C008400002080B400AF024B1B681846BD46D2
:102A4C0080BC70478400002080B400AF024B184655
:102A5C00BD4680BC704700BF7800002080B485B0B4
:102A6C0000AF03460A46FB801346BB80FA88BB883E
:102A7C00D31A9BB2FB81B7F90E30782B04DDBB88DF
:102A8C0078339BB21BB20BE0B7F90E3013F1780F11
:102A9C0004DABB88783B9BB21BB201E0B7F9063075
:102AAC0018461437BD4680BC7047000080B582B014
:102ABC0000AF03460A46FB801346BB80B7F90630CD
:102ACC00B3F57A7F02DB40F2E733FB80B7F90630CF
:102ADC0013F57A7F02DC4FF61943FB80B7F904300B
:102AEC00B3F57A7F02DB40F2E733BB80B7F90430F1
:102AFC0013F57A7F02DC4FF61943BB80354BB3F9E3
:102B0C000020B7F9063011461846FFF7A7FF034619
:102B1C00FB80314BB3F90020B7F90430114618464D
:102B2C00FFF79CFF0346BB802A4AFB8813802A4A86
:102B3C00BB881380B7F90630002B0FDB0022012174
:102B4C002648FFF7DEF9012202212448FFF7D9F9C4
:102B5C00234B1B68B7F906205A630FE001220121B1
:102B6C001E48FFF7CEF9002202211C48FFF7C9F9D5
:102B7C00B7F906201A4B1B6852425A63B7F9043056
:102B8C00002B11DB00224FF480611448FFF7B9F9D8
:102B9C0001224FF400611148FFF7B3F9104B1B6889
:102BAC00B7F904209A6311E001224FF480610B48BD
:102BBC00FFF7A7F900224FF400610848FFF7A1F9CD
:102BCC00B7F90420064B1B6852429A6300BF0837C2
:102BDC00BD4680BD9000002092000020000C0140FA
:102BEC002C00002080B500AF124B00221A80124B33
:102BFC0000221A80002201211048FFF782F90022DE
:102C0C0002210E48FFF77DF900224FF480610B483A
:102C1C00FFF777F900224FF400610848FFF771F9CC
:102C2C00074B1B6800225A63054B1B6800229A63F2
:102C3C0000BF80BD9000002092000020000C0140DD
:102C4C002C00002090B585B000AF78600B46FB706F
:102C5C007B68BB60FB78002B22D13B4B1B687968EF
:102C6C001846FDF773FA03461A46374B1A60364B73
:102C7C001B6836491846FDF72DFD0346002B02D084
:102C8C00314B324A1A60304B1B6831491846FDF7FC
:102C9C0003FD0346002B07D02B4B2D4A1A6003E093
:102CAC00294B4FF000021A604FF00003FB60FB78D9
:102CBC00002B0AD1274B1B6819467868FDF744FA9C
:102CCC000346FB60234A7B6813602349B868FDF711
:102CDC0045FB03461C461C4B1B684FF00001184675
:102CEC00FDF73CFB034619462046FDF72FFA034639
:102CFC001C461A49F868FDF731FB03461946204675
:102D0C00FDF724FA03461A46154B1A60144B1B6840
:102D1C0014491846FDF7DEFC0346002B02D0104B7D
:102D2C00104A1A600E4B1B680F491846FDF7B4FC8D
:102D3C000346002B00D102E0094B0B4A1A6000BF7E
:102D4C001437BD4690BD00BF980000200000A04283
:102D5C000000A0C2940000200000AA4200005C42C7
:102D6C009C00002000001B4400001BC480B400AF7A
:102D7C00024B1B681846BD4680BC70479C00002067
:102D8C0080B400AF00BFFDE780B400AF00BFFDE72B
:102D9C0080B400AF00BFFDE780B400AF00BFFDE71B
:102DAC0080B400AF00BFFDE780B400AF00BFBD46EC
:102DBC0080BC704780B400AF00BFBD4680BC70477C
:102DCC0080B400AF00BFBD4680BC704780B500AF7B
:102DDC00FEF7DEFA00BF80BD80B485B000AF154BA6
:102DEC009B69144A43F001039361124B9B6903F0F6
:102DFC000103BB60BB680F4BDB690E4A43F0805389
:102E0C00D3610C4BDB6903F080537B607B680A4B0E
:102E1C005B68FB60FB6823F0E063FB60FB6843F0DE
:102E2C000073FB60044AFB68536000BF1437BD4657
:102E3C0080BC7047001002400000014080B485B097
:102E4C0000AF78607B681B68094A93420BD1094B31
:102E5C00DB69084A43F00203D361064BDB6903F0DC
:102E6C000203FB60FB6800BF1437BD4680BC704793
:102E7C00000400400010024080B588B000AF7860BC
:102E8C0007F1100300221A605A609A60DA607B68BE
:102E9C001B680F4A934217D10E4B9B690D4A43F0A6
:102EAC00040393610B4B9B6903F00403FB60FB6809
:102EBC00C0233B6102237B610323FB6107F11003F9
:102ECC0019460548FEF782FE00BF2037BD4680BD7F
:102EDC00000400400010024000080140FDF72AFCED
:102EEC000B480C490C4A002302E0D458C45004335C
:102EFC00C4188C42F9D3094A094C002301E0136031
:102F0C000432A242FBD300F017F8FFF72DF97047FB
:102F1C00000000200C000020E82F00080C0000200E
:102F2C00A0000020FEE703460244934200D1704704
:102F3C0003F8011BF9E7000070B500260C4D0D4B92
:102F4C005B1B9C10A64209D1002600F019F80A4D13
:102F5C000A4B5B1B9C10A64205D170BD55F8043B77
:102F6C0098470136EEE755F8043B98470136F2E7EF
:102F7C00E02F0008E02F0008E02F0008E42F0008E5
:102F8C00F8B500BFF8BC08BC9E467047F8B500BF4A
:082F9C00F8BC08BC9E4670471A
:102FA400FBFFFFFFFDFFFFFFFFFFFFFF010000002E
:102FB4000300000005000000000000000000000005
:102FC40001020304060708090203040506070809A9
:0C2FD4000A0B0C0D0E0F10100102000083
:042FE00031010008B3
:042FE4000D010008D3
:0C2FE80000127A0010000000010300003D
:0400000508002EE9D8
:00000001FF
